:100000000C94E8060C9419070C9419070C94190722
:100010000C9419070C9419070C9419070C941907E0
:100020000C9419070C9419070C9419070C941907D0
:100030000C9419070C9419070C9419070C941907C0
:100040000C9419070C94252E0C9419070C9419077D
:100050000C9419070C9419070C9419070C94713D12
:100060000C9419070C94E53D0C94BB3D0C941907B6
:100070000C9419070C9419070C9419070C94190780
:100080000C9483160C9419070C9419070C941907F7
:100090000C9419070C9419070C9419070C94190760
:1000A0000C9419070C9419070C9455160C94190705
:1000B0000C9419070C9419070C9419070C94271623
:1000C0000C9419070C9419070C9419070C94190730
:1000D0000C9419070C9419070C9419070C94190720
:1000E0000C941907483B4B3B3A3B3E3B443B823B1D
:1000F0004F3B533B593B5D3B613B673B6B3B6F3B2E
:10010000823B753B793B7D3BC04AC54ACA4AD44ACB
:10011000DE4A574BE84AF04AF84A024B0C4B164B62
:10012000254B2F4B574B394B434B4D4B084AD73B35
:100130003BCE016E84BCBFFDC12F3D6C74319ABDB6
:1001400056833DDA3D00C77F11BED9E4BB4C3E91DA
:100150006BAAAABE000000803F05A84CCDB2D44EC9
:10016000B93836A9020C50B9918688083CA6AAAACB
:100170002ABE000000803F000C94533B0C94B10A4F
:100180000C94F04A0C94A83B0C94615C0C94EA41EA
:100190000C94B3130C943E080C94905C0C940C4B90
:1001A0000C94D44A0C94D15B0C944D120C943C07E3
:1001B0000C94EB3B0C94130C0C9435120C943E3BBA
:1001C0000C947D3B0C94315C0C940D120C94613BAF
:1001D0000C94160A0C9445120C944B3B0C942D1263
:1001E0000C942F4B0C94BD5B0C94DF5B0C941B07A1
:1001F0000C94394B0C94254B0C94593B0C943D12A8
:100200000C9405120C94823B0C940B620C945D3B95
:100210000C94434B0C94E84A0C94DE4A0C94245CF6
:100220000C94164B0C94673B0C94024B0C94455C5D
:100230000C94AF090C9418450C9487070C94753BEB
:100240000C944C0B0C94C04A0C9415120C946F3BFC
:100250000C94FC070C948A070C941D080C94D23B58
:100260000C94F84A0C944D4B0C94ED3B0C946B3B66
:100270000C94443B0C943A3B0C9455120C941B3E4A
:100280000C94574B0C9408460C9486070C94174713
:100290000C944F3B0C94CA4A0C9425120C94651292
:1002A0000C945D120C943A3C0C94793B0C94C54A26
:1002B0000C94483B0C941D124E414E494E495459E2
:1002C000494E46CDCCCC3D0AD7233C17B7D1387721
:1002D000CC2B329595E6241FB14F0A000020410037
:1002E00000C84200401C4620BCBE4CCA1B0E5AAE81
:1002F000C59D744D323033200041646A7573746952
:100300006E67206C696D6974732E0020537465707C
:100310003D002073746570732E204469723D00297E
:1003200020002028004D6F76696E6720004431342C
:1003300020004435302053004C494D4954204D494C
:100340004E20004C494D4954204D41582000443125
:10035000302056004E4F4C494E454E554D004241BF
:10036000444C494E454E554D200020230049204124
:100370004D20004669726D77617265207600290A0A
:100380000029202D2028004D313031202800204127
:10039000002046004D3131340024F4D43050C38E57
:1003A00020C2A24017828B7011127A910D816CD9F4
:1003B0000AA861E108C7586607615143061E4B5DF4
:1003C00005C145A7041A411104093D98037139314B
:1003D000034036DB0265339102D4305402802E1D77
:1003E00002632CEE01752AC501B028A001102781F7
:1003F000018F2564012B244B01E0223401AC211F25
:10040000018D200D01801FFC00841EED00971DDF73
:1004100000B81CD200E61BC600201BBC00641AB248
:1004200000B219A8000A19A0006A189900D1179102
:100430000040178B00B516840031167E00B3157985
:10044000003A157300C7146F0058146A00EE136663
:10045000008813630025135E00C7125B006C1257FF
:100460000015125400C111510070114F0021114BA1
:1004700000D61049008D104700461044000210427B
:1004800000C00F4000800F3E00420F3C00060F3BB3
:1004900000CB0E3800930E37005C0E3500270E346B
:1004A00000F30D3200C10D3100900D3000600D2EB3
:1004B00000320D2D00050D2C00D90C2B00AE0C299F
:1004C00000850C29005C0C2700350C27000E0C263B
:1004D00000E80B2400C40B2400A00B23007D0B2399
:1004E000005A0B2100390B2100180B2000F80A1FBD
:1004F00000D90A1E00BB0A1E009D0A1D00800A1DAD
:1005000000630A1C00470A1B002C0A1B00110A1A70
:1005100000F7091A00DD091900C4091900AB09190F
:1005200000920917007B091800630917004C09168F
:100530000036091600200916000A091500F50815ED
:1005400000E0081400CC081400B8081400A4081433
:1005500000900813007D0812006B08130058081261
:100560000046081200340811002308110012081177
:100570000001081100F0071000E0071000D007107C
:1005800000C0071000B0070F00A107100091070E70
:100590000083070F0074070F0065070E0057070E52
:1005A0000049070E003B070D002E070E0020070D27
:1005B0000013070D0006070D00F9060C00ED060DEF
:1005C00000E0060C00D4060C00C8060C00BC060CAB
:1005D00000B0060C00A4060B0099060C008D060B5B
:1005E0000082060B0077060B006C060B0061060A02
:1005F0000057060B004C060A0042060A0038060A9D
:10060000002E060A0024060A001A060A001006092F
:100610000007060A00FD050900F4050900EB0509BD
:1006200000E2050900D9050900D0050900C7050940
:1006300000BE050900B5050800AD050800A50509BF
:10064000009C050800940508008C05080084050836
:10065000007C050800740508006C050700650508A6
:10066000005D050700560508004E05070047050711
:10067000004005080038050700310507002A050776
:1006800000230507001C050600160507000F0507D7
:10069000000805060002050700FB040600F5040734
:1006A00000EE040600E8040600E2040700DB04068E
:1006B00000D5040600CF040600C9040600C30406E2
:1006C00000BD040600B7040600B1040500AC040632
:1006D00000A6040600A00405009B0406009504057E
:1006E00000900406008A04050085040500800406C5
:1006F000007A04050075040500700405006B04050C
:100700000066040500610405005C0405005704054B
:1007100000520405004D040500480405004304058B
:10072000003E0404003A04050035040500300404CA
:10073000002C04050027040400230405001E040403
:10074000001A04040016040500110404000D04043A
:1007500000090405000404040000040400FC030470
:1007600000F8030400F4030400F0030400EC0304A5
:1007700000E8030400E4030400E0030400DC0304D5
:1007800000D8030400D4030400D0030400CC030405
:1007900000C8030300C503030024F404D9201BC4CC
:1007A0000C5C0E9804C4095F0265077101F405F939
:1007B00000FB04B30048048700C1036900580355D7
:1007C0000003034500BE023A008402310053022AAE
:1007D000002902250004022000E4011C00C80119C0
:1007E00000AF01170098011400840113007101107B
:1007F000006101100051010E0043010D0036010B94
:10080000002B010B0020010B00150109000C010950
:100810000003010800FB000800F3000800EB0007DC
:1008200000E4000600DE000600D8000600D2000644
:1008300000CC000500C7000500C2000500BD000493
:1008400000B9000400B5000400B1000400AD0004CC
:1008500000A9000400A5000300A20003009F0004FB
:10086000009B000300980003009500020093000322
:1008700000900003008D0002008B0003008800023E
:10088000008600020084000300810002007F000255
:10089000007D0002007B0002007900020077000169
:1008A0000076000200740002007200010071000274
:1008B000006F0002006D0001006C0002006A000180
:1008C0000069000200670001006600010065000188
:1008D000006400020062000100610001006000018C
:1008E000005F0002005D0001005C0001005B000190
:1008F000005A000100590001005800010057000192
:100900000056000100550001005400010053000092
:10091000005300010052000100510001005000018D
:10092000004F0001004E0000004E0001004D00018C
:10093000004C0001004B0000004B0001004A000188
:100940000049000100480000004800010047000184
:10095000004600000046000100450000004500017F
:100960000044000100430000004300010042000079
:100970000042000100410000004100010040000170
:10098000003F0000003F0001003E0000003E00016B
:10099000003D0000003D0001003C0000003C000064
:1009A000003C0001003B0000003B0001003A000059
:1009B000003A000100390000003900010038000051
:1009C0000038000000380001003700000037000147
:1009D000003600000036000000360001003500003F
:1009E0000035000000350001003400000034000034
:1009F0000034000100330000003300000033000128
:100A0000003200000032000000320001003100001E
:100A10000031000000310001003000000030000013
:100A200000300001002F0000002F0000002F000008
:100A3000002F0001002E0000002E0000002E0001FB
:100A4000002D0000002D0000002D0000002D0001F1
:100A5000002C0000002C0000002C0000002C0001E5
:100A6000002B0000002B0000002B0000002B0001D9
:100A7000002A0000002A0000002A0000002A0001CD
:100A800000290000002900000029000000290000C2
:100A900000290001002800000028000000280000B4
:100AA00000280000002800010027000000270000A7
:100AB000002700000027000000270001002600009A
:100AC000002600000026000000260000002600018D
:100AD0000025000000250000002500000025000082
:100AE0000025000000250001002400000024000073
:100AF0000024000000240000002400010023000066
:100B00000023000000230000002300000023000059
:100B1000002300000023000100220000002200004A
:100B2000002200000022000000220000002200013C
:100B30000021000000210000002100000021000031
:100B40000021000000210000002100010020000021
:100B50000020000000200000002000000020000015
:100B6000002000000020000000200001001F000005
:100B7000001F0000001F0000001F0000001F0000F9
:100B8000001F0000001F0001001E0000001E0000EA
:100B9000001E0000001E000000446F6E652E00461F
:100BA000696E6420486F6D652E2E2E006164646549
:100BB000640072656D6F766564000000210024009A
:100BC00027002A002D00300033000101000004013D
:100BD00007010A0100002200250028002B002E003A
:100BE0003100340002010000050108010B01000082
:100BF00020002300260029002C002F0032000001D5
:100C0000000003010601090105050505070508089F
:100C10000808020202020A0A080804040404010186
:100C2000010101010101030303030303030304079B
:100C300007070C0C0C0C0C0C0C0C02020202060632
:100C40000606060606060B0B0B0B0B0B0B0B010225
:100C500010202008081020401020408002010201CE
:100C60000804020101020408102040808040201086
:100C700008040201800402018040201008040201DF
:100C80000804020101020408102040800102040847
:100C90001020408000000A0B02090C0D0E0807030B
:100CA000040100000000000000000000000000003F
:100CB0000000000000000000000000000000000034
:100CC00012111000000000000000000000000000F1
:100CD000000000000000000000004275696C7420F4
:100CE00000486173204C4344005472792074686555
:100CF00073652028776974682061206E65776C6958
:100D00006E65293A204730302C4730312C4730323D
:100D10002C4730332C4730342C4732382C4739306D
:100D20002C4739312C4739322C4D31382C4D31304C
:100D3000312C4D3130302C4D31313400506C6561E7
:100D400073652073656520687474703A2F2F6D6128
:100D50006B656C616E67656C6F2E636F6D2F2066BF
:100D60006F72206D6F726520696E666F726D61744F
:100D7000696F6E2E000A0A48454C4C4F20574F525F
:100D80004C442120000A3E20002052004438204CD0
:100D900000536176696E672063616C696272617489
:100DA000696F6E2E00536176696E6720686F6D659E
:100DB0002E00536176696E67206C696D6974732EBD
:100DC00000536176696E67205549442E00000B621E
:100DD00011241FBECFEFD1E2DEBFCDBF00E00CBFBC
:100DE00014E0A0E0B2E0E2E1F4ED00E00BBF02C0ED
:100DF00007900D92AE3BB107D9F728E1AEEBB4E016
:100E000001C01D92AD3AB207E1F716E0C8EED6E098
:100E100000E006C021970109802FFE010E94A9660B
:100E2000C73ED10780E00807A9F70E942C5E0C940A
:100E3000076A0C9400001092191410921614109264
:100E400087131092701384E080936F138091861340
:100E5000882319F0815080938613E091861384E0F3
:100E6000E89FF0011124EE58FC4E8281938190930B
:100E70006E1380936D13089581E090911814913052
:100E800009F480E0809318141092161410928713BE
:100E90001092701384E080936F13809186138823DF
:100EA00019F0815080938613E091861384E0E89FC7
:100EB000F0011124EE58FC4E8281938190936E13C1
:100EC00080936D1308958091460590914705019692
:100ED000843191052CF4909347058093460508953D
:100EE0001092470510924605809144059091450562
:100EF0000196843091052CF4909345058093440528
:100F0000089510924505109244050895089580E0D3
:100F100090E00895CF93DF93CDB7DEB72C970FB64F
:100F2000F894DEBF0FBECDBF809130149091311484
:100F3000A0913214B091331489839A83AB83BC831C
:100F40008091401490914114A0914214B0914314A7
:100F50008D839E83AF83B88720E030E044EB52E47A
:100F600060915014709151148091521490915314C7
:100F70000E94BB64882329F080E090E0A4EBB2E4F7
:100F800004C080E090E0A0E2B2E489879A87AB8752
:100F9000BC874091090250910A0260910B02709146
:100FA0000C02CE0101960E94FF4B10921614109273
:100FB00087131092701384E080936F1380918613CF
:100FC000882319F0815080938613E091861384E082
:100FD000E89FF0011124EE58FC4E8281938190939A
:100FE0006E1380936D132C960FB6F894DEBF0FBE70
:100FF000CDBFDF91CF9108950E94634B10921614DC
:10100000109287131092701384E080936F13809175
:101010008613882319F0815080938613E0918613FC
:1010200084E0E89FF0011124EE58FC4E8281938108
:1010300090936E1380936D1308950E94714B1092DC
:101040001614109287131092701384E080936F131C
:1010500080918613882319F0815080938613E09144
:10106000861384E0E89FF0011124EE58FC4E828143
:10107000938190936E1380936D1308950E94433A69
:1010800010921614109287131092701384E08093BC
:101090006F1380918613882319F0815080938613F3
:1010A000E091861384E0E89FF0011124EE58FC4E95
:1010B0008281938190936E1380936D130895CF92E4
:1010C000DF92EF92FF920F931F93CF93DF936C0108
:1010D0008B017A01EC01C254DB4F888187FF04C089
:1010E000FB011182108224C02CE02C9DC0012D9D9B
:1010F000900D11242881AC01420F511D27FD5A95F6
:101100002091901830E04217530794F42881AC01E5
:10111000420F511D27FD5A959A01FA01EE0FFF1F4C
:101120002E0F3F1FF901EC5DF74E208126FD19C0FF
:1011300088818F5F88832CE02C9DC0012D9D900DB0
:1011400011242881AC01420F511D27FD5A95209191
:10115000901830E042175307BCF428812C3044F13A
:1011600013C02881820F911D27FD9A95FC01EE0F77
:10117000FF1F8E0F9F1FFC01EC5DF74E808160E02A
:101180008F730E94853CD4CFF801808191810496B1
:1011900080349C4918F480E49CE904C0F801808103
:1011A00091810496F701918380838FEF888345C0F6
:1011B000F801408151812881BC01620F711D27FD1A
:1011C0007A959B01FB01EE0FFF1F2E0F3F1FF901C8
:1011D000EC5DF74E21813281240F351FF7013183F9
:1011E00020832881AC01420F511D27FD5A959A0199
:1011F000FA01EE0FFF1F2E0F3F1FF901EC5DF74EB6
:10120000208126FF1AC02881820F911D27FD9A9503
:10121000FC01EE0FFF1F8E0F9F1FFC01EC5DF74ED0
:10122000808161E08F73DF91CF911F910F91FF90CB
:10123000EF90DF90CF900C94853CDF91CF911F9180
:101240000F91FF90EF90DF90CF900895CF93DF93B1
:101250000E94653D8BE00E945C3CC1E0D0E0892BA0
:1012600011F0C0E0D0E08CE00E945C3C892B19F0CA
:1012700080E090E002C082E090E08C2B9D2B2091DA
:10128000C1043091C20482179307F1F181309105B6
:1012900001F11CF4009741F033C08230910559F000
:1012A0008330910579F02CC021303105C1F0223016
:1012B0003105E1F025C02115310589F023303105D4
:1012C000A9F01EC02130310589F022303105C1F46A
:1012D00006C02115310551F02330310589F42091E4
:1012E0008813309189132F5F3F4F06C020918813D8
:1012F0003091891321503109309389132093881339
:101300009093C2048093C1048BE20E945C3C2091C4
:101310000002022E000C330B8217930731F081304C
:10132000910519F421E02093161480930002DF91B7
:10133000CF910895209144053091450594E1929F05
:10134000F001939FF00D1124E956FC4E20914605C3
:1013500030914705E20FF31F80830C94630780915F
:1013600016148823F1F0109216141092871310921D
:10137000701384E080936F1380918613882319F093
:10138000815080938613E091861384E0E89FF001FA
:101390001124EE58FC4E8281938190936E138093BA
:1013A0006D1360918813709189136115710539F17E
:1013B000072E000C880B990B0E94C2642091090231
:1013C00030910A0240910B0250910C020E94B266C9
:1013D00020E030E0A9010E941269181624F080E094
:1013E00090E0DC0104C080E090E0A0E8BFE38093DF
:1013F000090290930A02A0930B02B0930C02109280
:10140000470510924605109245051092440586E462
:101410000E949A096091090270910A0280910B0260
:1014200090910C0240E050E00C9414210F931F9314
:10143000CF93DF93CDB7DEB72C970FB6F894DEBF0E
:101440000FBECDBF809116148823F1F010921614B0
:10145000109287131092701384E080936F13809121
:101460008613882319F0815080938613E0918613A8
:1014700084E0E89FF0011124EE58FC4E82819381B4
:1014800090936E1380936D1380913014909131146A
:10149000A0913214B091331489839A83AB83BC83B7
:1014A0008091401490914114A0914214B091431442
:1014B0008D839E83AF83B887009188131091891321
:1014C000B801012E000C880B990B0E94C264209178
:1014D00050143091511440915214509153140E9461
:1014E000B26620E030E0A9010E94126918162CF0C3
:1014F00080E090E0A0E8BFEB04C080E090E0A0E8CE
:10150000BFE389879A87AB87BC87012B61F0409145
:10151000090250910A0260910B0270910C02CE01F7
:1015200001960E94FF4B10924705109246051092BB
:101530004505109244058AE50E949A0969857A85D5
:101540008B859C8540E050E00E9414212C960FB6BC
:10155000F894DEBF0FBECDBFDF91CF911F910F91E9
:1015600008950F931F93CF93DF93CDB7DEB72C97DA
:101570000FB6F894DEBF0FBECDBF8091161488233E
:10158000F1F010921614109287131092701384E0E9
:1015900080936F1380918613882319F08150809374
:1015A0008613E091861384E0E89FF0011124EE5841
:1015B000FC4E8281938190936E1380936D13809182
:1015C000301490913114A0913214B0913314898366
:1015D0009A83AB83BC830091881310918913B8015F
:1015E000012E000C880B990B0E94C26420914014BC
:1015F0003091411440914214509143140E94B266BC
:1016000020E030E0A9010E94126918162CF080E059
:1016100090E0A0E8BFEB04C080E090E0A0E8BFE36A
:101620008D839E83AF83B88780915014909151141D
:10163000A0915214B091531489879A87AB87BC87C5
:10164000012B61F04091090250910A0260910B0256
:1016500070910C02CE0101960E94FF4B109247053B
:1016600010924605109245051092440589E50E94A6
:101670009A096D817E818F81988540E050E00E94BB
:1016800014212C960FB6F894DEBF0FBECDBFDF91AC
:10169000CF911F910F9108950F931F93CF93DF93D5
:1016A000CDB7DEB72C970FB6F894DEBF0FBECDBF17
:1016B000809116148823F1F010921614109287135B
:1016C0001092701384E080936F13809186138823A7
:1016D00019F0815080938613E091861384E0E89F8F
:1016E000F0011124EE58FC4E8281938190936E1389
:1016F00080936D130091881310918913B801012E06
:10170000000C880B990B0E94C26420913014309118
:10171000311440913214509133140E94B26620E08B
:1017200030E0A9010E94126918162CF080E090E0C8
:10173000A0E8BFEB04C080E090E0A0E8BFE38983AD
:101740009A83AB83BC838091401490914114A09103
:101750004214B09143148D839E83AF83B8878091E8
:10176000501490915114A0915214B0915314898740
:101770009A87AB87BC87012B61F040910902509199
:101780000A0260910B0270910C02CE0101960E9438
:10179000FF4B109247051092460510924505109296
:1017A000440588E50E949A0969817A818B819C8130
:1017B00040E050E00E9414212C960FB6F894DEBF52
:1017C0000FBECDBFDF91CF911F910F9108951F9351
:1017D000CF93DF93EC0114E129912223A9F08091AA
:1017E000440590914505189FF001199FF00D1124B3
:1017F000E956FC4E8091460590914705E80FF91F88
:1018000020830E946307E8CFDF91CF911F91089555
:10181000E7E9F3E180E2819393E1E83EF907D9F744
:101820001092E71308950E94080C109217148091EB
:10183000701381114EC080916F13882309F449C041
:1018400010924705109246051092450510924405E6
:10185000E091861384E0E89FF0011124EE58FC4EDD
:101860008181882311F080E201C08EE30E949A09F1
:101870008EE592E00E94E70B8091861394E0899FA9
:10188000F0011124EE58FC4E218190911714291378
:1018900020C0909116149923E1F010921614109222
:1018A00087131092701394E090936F13882319F0AC
:1018B000815080938613E091861384E0E89FF001C5
:1018C0001124EE58FC4E8281938190936E13809385
:1018D0006D13809117148F5F80931714909170137C
:1018E000891708F44EC020916F13821708F049C081
:1018F0001092470510924605282F30E0291B310928
:101900003093450520934405E091861394E0E99FC8
:10191000F0011124EE58FC4E9181891711F080E2FC
:1019200001C08EE30E949A0983E692E00E94E70BD1
:10193000E091861384E0E89FD0011124AE58BC4E9C
:1019400011969C918091171498131BC080911614C6
:101950008823B9F010921614109287131092701306
:1019600084E080936F13EF5FE093861394E0E99F28
:10197000F0011124EE58FC4E1182108285E092E1B4
:10198000C7C3809117148F5F8093171490917013C1
:10199000891708F44EC020916F13821708F049C0D0
:1019A0001092470510924605282F30E0291B310977
:1019B0003093450520934405E091861394E0E99F18
:1019C000F0011124EE58FC4E9181891711F080E24C
:1019D00001C08EE30E949A098FE692E00E94E70B15
:1019E000E091861384E0E89FD0011124AE58BC4EEC
:1019F00011969C918091171498131BC08091161416
:101A00008823B9F010921614109287131092701355
:101A100084E080936F13EF5FE093861394E0E99F77
:101A2000F0011124EE58FC4E118210828DE092E1FB
:101A30006FC3809117148F5F809317149091701368
:101A4000891708F44EC020916F13821708F049C01F
:101A50001092470510924605282F30E0291B3109C6
:101A60003093450520934405E091861394E0E99F67
:101A7000F0011124EE58FC4E9181891711F080E29B
:101A800001C08EE30E949A098BE792E00E94E70B67
:101A9000E091861384E0E89FD0011124AE58BC4E3B
:101AA00011969C918091171498131BC08091161465
:101AB0008823B9F0109216141092871310927013A5
:101AC00084E080936F13EF5FE093861394E0E99FC7
:101AD000F0011124EE58FC4E1182108285E192E152
:101AE00017C3809117148F5F809317149091701310
:101AF000891708F44EC020916F13821708F049C06F
:101B00001092470510924605282F30E0291B310915
:101B10003093450520934405E091861394E0E99FB6
:101B2000F0011124EE58FC4E9181891711F080E2EA
:101B300001C08EE30E949A0987E892E00E94E70BB9
:101B4000E091861384E0E89FD0011124AE58BC4E8A
:101B500011969C918091171498131BC080911614B4
:101B60008823B9F0109216141092871310927013F4
:101B700084E080936F13EF5FE093861394E0E99F16
:101B8000F0011124EE58FC4E118210828DE192E199
:101B9000BFC2809117148F5F8093171490917013B8
:101BA000891708F44EC020916F13821708F049C0BE
:101BB0001092470510924605282F30E0291B310965
:101BC0003093450520934405E091861394E0E99F06
:101BD000F0011124EE58FC4E9181891711F080E23A
:101BE00001C08EE30E949A0983E992E00E94E70B0C
:101BF000E091861384E0E89FD0011124AE58BC4EDA
:101C000011969C918091171498131BC08091161403
:101C10008823B9F010921614109287131092701343
:101C200084E080936F13EF5FE093861394E0E99F65
:101C3000F0011124EE58FC4E1182108285E292E1EF
:101C400067C2809117148F5F80931714909170135F
:101C5000891708F44EC020916F13821708F049C00D
:101C60001092470510924605282F30E0291B3109B4
:101C70003093450520934405E091861394E0E99F55
:101C8000F0011124EE58FC4E9181891711F080E289
:101C900001C08EE30E949A0985EA92E00E94E70B58
:101CA000E091861384E0E89FD0011124AE58BC4E29
:101CB00011969C918091171498131BC08091161453
:101CC0008823B9F010921614109287131092701393
:101CD00084E080936F13EF5FE093861394E0E99FB5
:101CE000F0011124EE58FC4E118210828DE292E137
:101CF0000FC2809117148F5F809317149091701307
:101D0000891708F44EC020916F13821708F049C05C
:101D10001092470510924605282F30E0291B310903
:101D20003093450520934405E091861394E0E99FA4
:101D3000F0011124EE58FC4E9181891711F080E2D8
:101D400001C08EE30E949A0988EB92E00E94E70BA3
:101D5000E091861384E0E89FD0011124AE58BC4E78
:101D600011969C918091171498131BC080911614A2
:101D70008823B9F0109216141092871310927013E2
:101D800084E080936F13EF5FE093861394E0E99F04
:101D9000F0011124EE58FC4E1182108285E392E18D
:101DA000B7C1809117148F5F8093171490917013AF
:101DB000891708F44EC020916F13821708F049C0AC
:101DC0001092470510924605282F30E0291B310953
:101DD0003093450520934405E091861394E0E99FF4
:101DE000F0011124EE58FC4E9181891711F080E228
:101DF00001C08EE30E949A0985EC92E00E94E70BF5
:101E0000E091861384E0E89FD0011124AE58BC4EC7
:101E100011969C918091171498131BC080911614F1
:101E20008823B9F010921614109287131092701331
:101E300084E080936F13EF5FE093861394E0E99F53
:101E4000F0011124EE58FC4E118210828DE392E1D4
:101E50005FC1809117148F5F809317149091701356
:101E6000891708F44EC020916F13821708F049C0FB
:101E70001092470510924605282F30E0291B3109A2
:101E80003093450520934405E091861394E0E99F43
:101E9000F0011124EE58FC4E9181891711F080E277
:101EA00001C08EE30E949A0982ED92E00E94E70B46
:101EB000E091861384E0E89FD0011124AE58BC4E17
:101EC00011969C918091171498131BC08091161441
:101ED0008823B9F010921614109287131092701381
:101EE00084E080936F13EF5FE093861394E0E99FA3
:101EF000F0011124EE58FC4E1182108285E492E12B
:101F000007C1809117148F5F8093171490917013FD
:101F1000891708F44EC020916F13821708F049C04A
:101F20001092470510924605282F30E0291B3109F1
:101F30003093450520934405E091861394E0E99F92
:101F4000F0011124EE58FC4E9181891711F080E2C6
:101F500001C08EE30E949A098FED92E00E94E70B88
:101F6000E091861384E0E89FD0011124AE58BC4E66
:101F700011969C918091171498131BC08091161490
:101F80008823B9F0109216141092871310927013D0
:101F900084E080936F13EF5FE093861394E0E99FF2
:101FA000F0011124EE58FC4E118210828DE492E172
:101FB000AFC0809117148F5F8093171490917013A6
:101FC000891708F44EC020916F13821708F049C09A
:101FD0001092470510924605282F30E0291B310941
:101FE0003093450520934405E091861394E0E99FE2
:101FF000F0011124EE58FC4E9181891711F080E216
:1020000001C08EE30E949A098CEE92E00E94E70BD9
:10201000E091861384E0E89FD0011124AE58BC4EB5
:1020200011969C918091171498131BC080911614DF
:102030008823B9F01092161410928713109270131F
:1020400084E080936F13EF5FE093861394E0E99F41
:10205000F0011124EE58FC4E1182108285E592E1C8
:1020600057C0809117148F5F80931714909170134D
:10207000891708F454C020916F13821708F04FC0DD
:102080001092470510924605282F30E0291B310990
:102090003093450520934405E091861394E0E99F31
:1020A000F0011124EE58FC4E9181891711F080E265
:1020B00001C08EE30E949A098FEF92E00E94E70B25
:1020C000E091861384E0E89FD0011124AE58BC4E05
:1020D00011969C9180911714981321C08091161429
:1020E0008823E9F01092161410928713109270133F
:1020F00084E080936F13EF5FE093861394E0E99F91
:10210000F0011124EE58FC4E118210828DE592E10F
:102110009383828390936E1380936D1308958091BF
:1021200017148F5F809317148093871308954F922D
:102130005F926F927F928F929F92AF92BF92CF9257
:10214000DF92EF92FF920F931F93CF93DF93CDB760
:10215000DEB768970FB6F894DEBF0FBECDBF8C0117
:102160006B017A010E94080C1092470510924605F7
:10217000109245051092440583E193E00E94E70B1D
:10218000380117FF03C08FEF681A780A75946794B7
:102190008601D7FE02C00F5F1F4F15950795EA9481
:1021A000EF2829F4962D872D3801092F182F8091BB
:1021B000301490913114A0913214B09133148D8762
:1021C0009E87AF87B88B89839A83AB83BC838091CA
:1021D000401490914114A0914214B0914314898B02
:1021E0009A8BAB8BBC8B8D839E83AF83B88780E04B
:1021F00090E0A4EBB2E48D8B9E8BAF8BB88F898778
:102200009A87AB87BC874091090250910A0260917E
:102210000B0270910C02CE010D960E94FF4B6627B7
:10222000772766197709072E000C880B990B0E94F7
:10223000C2644B015C016D877E878F87988BB801E4
:10224000012E000C880B990B0E94C2646B017C016B
:10225000698B7A8B8B8B9C8B4091090250910A027F
:1022600060910B0270910C02CE010D960E94FF4B03
:1022700080E090E0A0E2B2E48D8B9E8BAF8BB88FB4
:102280004091090250910A0260910B0270910C0278
:10229000CE010D960E94FF4BB301770C880B990B72
:1022A0000E94C2642B013C016D877E878F87988BCB
:1022B000C98ADA8AEB8AFC8A4091090250910A02A3
:1022C00060910B0270910C02CE010D960E94FF4BA3
:1022D0004D865E866F86788A66277727601B710B2E
:1022E000072E000C880B990B0E94C2642B013C0145
:1022F000698B7A8B8B8B9C8B4091090250910A02DF
:1023000060910B0270910C02CE010D960E94FF4B62
:102310008D869E86AF86B88A498A5A8A6B8A7C8A5D
:102320004091090250910A0260910B0270910C02D7
:10233000CE010D960E94FF4B8D869E86AF86B88A91
:10234000C98ADA8AEB8AFC8A4091090250910A0212
:1023500060910B0270910C02CE010D960E94FF4B12
:1023600080E090E0A4EBB2E48D8B9E8BAF8BB88FB6
:102370004091090250910A0260910B0270910C0287
:10238000CE010D960E94FF4B4091090250910A0226
:1023900060910B0270910C02CE0101960E94FF4BDE
:1023A00010921614109287131092701384E0809389
:1023B0006F1380918613882319F0815080938613C0
:1023C000E091861394E0E99FF0011124EE58FC4E51
:1023D0008281938190936E1380936D1368960FB6EC
:1023E000F894DEBF0FBECDBFDF91CF911F910F914B
:1023F000FF90EF90DF90CF90BF90AF909F908F9025
:102400007F906F905F904F90089540E050E062E5BC
:1024100072E084EA91E00C94971040E050E064EAA6
:1024200071E089E291E00C94971040E050E069E29D
:1024300071E082ED90E00C94971040E050E062ED86
:1024400070E084E990E00C94971040E050E064E67E
:1024500071E088ED90E00C94971040E050E067E167
:1024600071E088ED90E00C94971041E050E062E557
:1024700072E084EA91E00C94971041E050E064EA45
:1024800071E089E291E00C94971041E050E069E23C
:1024900071E082ED90E00C94971041E050E062ED25
:1024A00070E084E990E00C94971041E050E064E61D
:1024B00071E088ED90E00C94971041E050E067E106
:1024C00071E088ED90E00C949710CF93DF93CDB737
:1024D000DEB7CC55D1090FB6F894DEBF0FBECDBF25
:1024E0008091C30481111EC010921614109287139C
:1024F0001092701384E080936F1380918613882369
:1025000019F0815080938613E091861384E0E89F50
:10251000F0011124EE58FC4E8281938190936E134A
:1025200080936D138091881390918913892B21F4E6
:1025300080911614813019F481E080937113809199
:102540007113813009F005C10E94080C1092171414
:102550008091701381114EC080916F13882309F40C
:1025600049C01092470510924605109245051092F9
:102570004405E091861394E0E99FF0011124EE58A0
:10258000FC4E8181882311F080E201C08EE30E941D
:102590009A098EE592E00E94E70B8091861394E001
:1025A000899FF0011124EE58FC4E2181909117145F
:1025B000291320C0909116149923E1F0109216145B
:1025C000109287131092701394E090936F138823E6
:1025D00019F0815080938613E091861384E0E89F80
:1025E000F0011124EE58FC4E8281938190936E137A
:1025F00080936D13809117148F5F809317140E943E
:102600007B4DCE0185960E940921CE0189960E94BC
:10261000164F882301F189A58271C1F442E150E08F
:10262000BE01675B7F4FCE0189960E94884F8091E3
:10263000171490917013891720F020916F1382174F
:10264000A8F0809117148F5F80931714CE0189969C
:102650000E943758DACF8FE195E10E943758809178
:102660001714809387131092711373C0109247054B
:1026700010924605282F30E0291B3109309345057B
:1026800020934405E091861394E0E99FF001112422
:10269000EE58FC4E9181891711F080E201C08EE363
:1026A0000E949A09CE01875B9F4F0E94E70B8091A1
:1026B000861394E0899FF0011124EE58FC4E21818D
:1026C000909117142913BDCF90911614913009F0F1
:1026D000B8CF509187134091701390916F13209150
:1026E0006D1330916E13882369F0815094E0899FB7
:1026F000F0011124EE58FC4E2281338140E094E039
:1027000050E0F1CF1092161450938713409370133A
:1027100090936F131092861330936E1320936D1362
:102720008FA198A59C838B8380E2FE01B996DE0180
:10273000159601900D928A95E1F782E292E09A83D4
:102740008983CE0101960E94C4508FE195E10E94D9
:102750003758C45ADF4F0FB6F894DEBF0FBECDBF57
:10276000DF91CF9108950E94080C10921714809168
:10277000701381114EC080916F13882309F449C0F2
:102780001092470510924605109245051092440597
:10279000E091861384E0E89FF0011124EE58FC4E8E
:1027A0008181882311F080E201C08EE30E949A09A2
:1027B0008EE592E00E94E70B8091861394E0899F5A
:1027C000F0011124EE58FC4E218190911714291329
:1027D00020C0909116149923E1F0109216141092D3
:1027E00087131092701394E090936F13882319F05D
:1027F000815080938613E091861384E0E89FF00176
:102800001124EE58FC4E8281938190936E13809335
:102810006D13809117148F5F80931714909170132C
:10282000891708F44EC020916F13821708F049C031
:102830001092470510924605282F30E0291B3109D8
:102840003093450520934405E091861394E0E99F79
:10285000F0011124EE58FC4E9181891711F080E2AD
:1028600001C08EE30E949A0985E293E00E94E70B83
:10287000E091861384E0E89FD0011124AE58BC4E4D
:1028800011969C918091171498131BC08091161477
:102890008823B9F0109216141092871310927013B7
:1028A00084E080936F13EF5FE093861394E0E99FD9
:1028B000F0011124EE58FC4E118210828CEF97E04B
:1028C000B7C1809117148F5F809317149091701384
:1028D000891708F44EC020916F13821708F049C081
:1028E0001092470510924605282F30E0291B310928
:1028F0003093450520934405E091861394E0E99FC9
:10290000F0011124EE58FC4E9181891711F080E2FC
:1029100001C08EE30E949A0984E393E00E94E70BD2
:10292000E091861384E0E89FD0011124AE58BC4E9C
:1029300011969C918091171498131BC080911614C6
:102940008823B9F010921614109287131092701306
:1029500084E080936F13EF5FE093861394E0E99F28
:10296000F0011124EE58FC4E118210828DE198E0A6
:102970005FC1809117148F5F80931714909170132B
:10298000891708F44EC020916F13821708F049C0D0
:102990001092470510924605282F30E0291B310977
:1029A0003093450520934405E091861394E0E99F18
:1029B000F0011124EE58FC4E9181891711F080E24C
:1029C00001C08EE30E949A0984E993E00E94E70B1C
:1029D000E091861384E0E89FD0011124AE58BC4EEC
:1029E00011969C918091171498131BC08091161416
:1029F0008823B9F010921614109287131092701356
:102A000084E080936F13EF5FE093861394E0E99F77
:102A1000F0011124EE58FC4E118210828CE49BE0F0
:102A200007C1809117148F5F8093171490917013D2
:102A3000891708F44EC020916F13821708F049C01F
:102A40001092470510924605282F30E0291B3109C6
:102A50003093450520934405E091861394E0E99F67
:102A6000F0011124EE58FC4E9181891711F080E29B
:102A700001C08EE30E949A0987E894E00E94E70B68
:102A8000E091861384E0E89FD0011124AE58BC4E3B
:102A900011969C918091171498131BC08091161465
:102AA0008823B9F0109216141092871310927013A5
:102AB00084E080936F13EF5FE093861394E0E99FC7
:102AC000F0011124EE58FC4E1182108281EB9AE045
:102AD000AFC0809117148F5F80931714909170137B
:102AE000891708F44EC020916F13821708F049C06F
:102AF0001092470510924605282F30E0291B310916
:102B00003093450520934405E091861394E0E99FB6
:102B1000F0011124EE58FC4E9181891711F080E2EA
:102B200001C08EE30E949A0987E993E00E94E70BB7
:102B3000E091861384E0E89FD0011124AE58BC4E8A
:102B400011969C918091171498131BC080911614B4
:102B50008823B9F0109216141092871310927013F4
:102B600084E080936F13EF5FE093861394E0E99F16
:102B7000F0011124EE58FC4E1182108286E19AE099
:102B800057C0809117148F5F809317149091701322
:102B9000891708F454C020916F13821708F04FC0B2
:102BA0001092470510924605282F30E0291B310965
:102BB0003093450520934405E091861394E0E99F06
:102BC000F0011124EE58FC4E9181891711F080E23A
:102BD00001C08EE30E949A0982E493E00E94E70B11
:102BE000E091861384E0E89FD0011124AE58BC4EDA
:102BF00011969C9180911714981321C080911614FE
:102C00008823E9F010921614109287131092701313
:102C100084E080936F13EF5FE093861394E0E99F65
:102C2000F0011124EE58FC4E118210828FEA99E0D7
:102C30009383828390936E1380936D130895809194
:102C400017148F5F809317148093871308951F9232
:102C50000F920FB60F9211240BB60F922F933F9342
:102C60004F935F936F937F938F939F93AF93BF9394
:102C7000EF93FF9348E251E064E271E080E090E07E
:102C80000E945F08FF91EF91BF91AF919F918F914B
:102C90007F916F915F914F913F912F910F900BBE5C
:102CA0000F900FBE0F901F9018951F920F920FB6A6
:102CB0000F9211240BB60F922F933F934F935F9374
:102CC0006F937F938F939F93AF93BF93EF93FF93F4
:102CD00048EA50E064EA70E082E090E00E945F0819
:102CE000FF91EF91BF91AF919F918F917F916F91E4
:102CF0005F914F913F912F910F900BBE0F900FBEA0
:102D00000F901F9018951F920F920FB60F921124DB
:102D10000BB60F922F933F934F935F936F937F93D5
:102D20008F939F93AF93BF93EF93FF9348E950E046
:102D300064E970E081E090E00E945F08FF91EF910C
:102D4000BF91AF919F918F917F916F915F914F91C3
:102D50003F912F910F900BBE0F900FBE0F901F90C1
:102D600018952F923F924F925F926F927F928F921F
:102D70009F92AF92BF92CF92DF92EF92FF920F930A
:102D80001F93CF93DF93CDB7DEB7C855D1090FB6E8
:102D9000F894DEBF0FBECDBF80919717882311F442
:102DA0000C94CC1E8B3311F40C94CC1E8E34A1F5F4
:102DB00040E050E060E87FEB0E94311F0E941E68F7
:102DC000C0901E18D0901F18E0902018F090211885
:102DD0006C157D058E059F0589F06EE573E08AE52B
:102DE00094E10E94185960911E1870911F188091EB
:102DF0002018909121180E94A12016C3DC01CB015C
:102E00000196A11DB11D80931E1890931F18A093C9
:102E10002018B09321180BC08091231881FF07C0A0
:102E200064E573E08AE594E10E941859B5C7E7E9C3
:102E3000F7E101900020E9F7CF01895997417C0122
:102E4000F7FC0AC0F701E956F84E80818A3239F062
:102E500091E0E91AF108F4CF8FEF9FEF01C0C701AD
:102E60002091231821FF02C0019629F0E7E9F7E13C
:102E7000C12CD12C03C062E573E017C3CF01875981
:102E800097418E159F051CF48191C826F7CFC70185
:102E9000F7FE02C080E090E060E070E08856984E57
:102EA0000E94EF620E941E684B015C01C616D706A5
:102EB000A1F06DE573E08AE594E10E94EF20B60190
:102EC000DD0C880B990B0E94A1206FE673E08AE568
:102ED00094E10E94EF20C4016BC5F701E956F84E5A
:102EE0001082E7E9F7E101900020E9F7329780814D
:102EF0008B3309F4108243E050E066E773E087E922
:102F000097E10E94F969892B79F460E270E087E922
:102F100097E10E94E76901960E944F6490935914CB
:102F2000809358140E9449598DE40E943951882396
:102F300009F4D5C340E050E060E87FEB8DE40E94E7
:102F4000311F0E941E686237710509F4F3C00CF04E
:102F500049C06A32710509F4B4C00CF561317105DC
:102F600009F48AC09CF46630710509F015C76091B8
:102F7000EE0470E080E090E00E94C064AB01BC0110
:102F800084E50E94311F1092EE0406C7623171057C
:102F900009F475C06431710509F474C0FDC6653665
:102FA000710509F4AAC03CF46436710509F0F4C651
:102FB0000E941151F1C66E36710509F4A1C0603747
:102FC000710509F0E9C68091C6049091C7049093F9
:102FD000C5048093C4048AE793E00E94D2450E940E
:102FE000B34BDAC66C32F1E07F0709F463C2ACF48C
:102FF0006B3C710509F4DFC03CF46537710509F0DD
:10300000CBC6E7E9F7E199C06D3C710509F401C150
:10301000623E710509F40DC2BFC6653F81E07807C5
:1030200009F464C25CF4643F714009F0B5C60E94C3
:1030300049590E945B590E949959AEC6663FF1E01A
:103040007F0709F456C2673F714009F0A5C60E9488
:10305000F1200E94DD206AED7CE08AE594E10E9487
:1030600018596CEA73E08AE594E10E948F200E946F
:10307000781F0E94E61E6EC40E94714B8DC60E948E
:10308000634B8AC68091C304882309F485C60E94D5
:103090007B4DCE0101960E940921CE0105960E942A
:1030A000164F882349F08D81827109F45DC6CE01E7
:1030B00005960E943758F1CF8FE195E10E9437586D
:1030C0006BC640E050E060E571E480E50E94311F8E
:1030D0006B017C0140E050E0BA0183E50E94311FA2
:1030E0000E941E6811E0672B09F410E0C701B601C9
:1030F0000E941E68862F612FF6C10E94781F4CC661
:1031000060911E1870911F188091201890912118BD
:103110000E94C264AB01BC018EE40E94311F0E9478
:103120001E6860931E1870931F1880932018909348
:10313000211832C60E94E61E2FC68F01075917417B
:1031400081918D34D1F70B5F1F4FE7E9F7E10190D3
:103150000020E9F73197E759F7410E171F0718F0DC
:1031600080E090E017C60956184ECE0101965C012A
:10317000E12CF12C4C01F801D1908F018D2D0D2CFB
:10318000000C990B0E94CB69892B09F4FEC5FDE068
:10319000DF1609F4FAC52AE0D21609F4F6C588E26A
:1031A000E816F10409F4F1C5FFEFEF1AFF0AF50183
:1031B000D1925F01E0CF63EF72E08AE594E10E9473
:1031C00018590BE413E0F8ECEF2EF4E0FF2EF801B1
:1031D000D1908F01F70140815181628173818D2DE2
:1031E0000E94311F4B015C01F70161937193819340
:1031F00091937F018D2D0E947D5AC501B4010E94DB
:10320000955B80E20E947D5AF3E00E341F07F9F6C9
:103210000BC14091D4045091D5046091D6047091B3
:10322000D70488E50E94311F7B018C0120E030E04B
:1032300040E051E40E94BB6487FF0EC020E030E014
:10324000A901B701C8010E94126918164CF0E12CBF
:10325000F12C00E010E004C0E12CF12C00E011E4BE
:10326000C701D8018093D4049093D504A093D604C9
:10327000B093D7046FE873E08AE594E10E94EF20F1
:103280006091D4047091D5048091D6049091D704B4
:103290000E94955B4091D8045091D9046091DA0462
:1032A0007091DB0489E50E94311F7B018C0120E0D5
:1032B00030E040E051E40E94BB6487FF0EC020E094
:1032C00030E0A901B701C8010E94126918164CF03C
:1032D000E12CF12C00E010E004C0E12CF12C00E026
:1032E00011E4C701D8018093D8049093D904A09326
:1032F000DA04B093DB0466E874E08AE594E10E94A6
:10330000EF206091D8047091D9048091DA049091F3
:10331000DB040E94955B4091DC045091DD046091D8
:10332000DE047091DF048AE50E94311F7B018C016D
:1033300020E030E040E051E40E94BB6487FF0EC013
:1033400020E030E0A901B701C8010E9412691816F7
:103350004CF0E12CF12C00E010E004C0E12CF12C49
:1033600000E011E4C701D8018093DC049093DD04F0
:10337000A093DE04B093DF0466E973E08AE594E18C
:103380000E94EF206091DC047091DD048091DE04E6
:103390009091DF040E94955B60910102709102029E
:1033A00080910302909104020E94C064AB01BC01B1
:1033B00082E40E94311F6B017C0120E034E244E78B
:1033C00059E40E94BB6487FF0DC020E030E0A901F2
:1033D000C701B6010E94126918164CF060E070E057
:1033E000CB0109C060E472E48FE090E004C0C70143
:1033F000B6010E94256860930102709302028093D7
:1034000003029093040269E973E08AE594E10E9463
:10341000EF2060910102709102028091030290916D
:1034200004024AE00E94825A8AE594E10E941459FB
:10343000B3C440E050E06CE272E480E50E94311FCA
:103440000E941E68F62E062F172F0F3F2FEF120730
:1034500009F4A2C440E050E060E87FEB83E50E94FD
:10346000311F0E941E686F3F8FEF780729F48F2D60
:103470000E945C3C7C0106C081E0672B09F080E083
:10348000E82EF12C6CE973E08AE594E10E94EF20CC
:1034900081E080931814802F0E945C3C8E159F055C
:1034A000D1F31092181464EA73E08AE594E10E9463
:1034B0008F2072C440E050E06AE773E480E50E9428
:1034C000311F6B017C0161E08CE20E94853CC701E9
:1034D000B6010E941E68072E000C880B990B0E94F3
:1034E0002B3D60E08CE20E94853C56C40E94F65958
:1034F00053C480E090E8A2EAB3E489839A83AB8363
:10350000BC8380E090E8A2EAB3EC8D839E83AF8316
:10351000B88780E090E0AAEFB3E489879A87AB8709
:10352000BC8780E090E0AAEFB3EC8D879E87AF87E1
:10353000B88B80E090E0A4EBB2E4898B9A8BAB8BE4
:10354000BC8B80E090E0A0E2B2E48D8B9E8BAF8BD1
:10355000B88F69EF72E08AE594E10E943759FE0165
:1035600031967F0108E214E1C12CD12C20E030E03B
:1035700048EC52E4F70160817181828193810E945D
:1035800021650E94546820E030E048EC52E40E943B
:10359000AC674B015C01F80120813181428153818C
:1035A0000E94BB64882341F0F80180829182A2824C
:1035B000B382CC24C394D12C20E030E048EC52E418
:1035C000F70164817581868197810E9421650E943F
:1035D000546820E030E048EC52E40E94AC674B01B4
:1035E0005C01F80124813581468157810E94BB64CA
:1035F000882341F0F80184829582A682B782CC2488
:10360000C394D12CF8E0EF0EF11C005F1F4F24E1B2
:103610000835120709F0AACFCD2811F00E945B5996
:1036200080E090E2A0E8B4E480931802909319023D
:10363000A0931A02B0931B02809314029093150278
:10364000A0931602B09317020E94C4596091180209
:103650007091190280911A0290911B020E941E68BB
:1036600069A77AA78BA79CA7609114027091150295
:1036700080911602909117020E941E686DA77EA786
:103680008FA798AB6091501470915114809152148F
:10369000909153140E941E6869AB7AAB8BAB9CABC4
:1036A000BE01675B7F4FCE0189960E948C38CE01A8
:1036B000875B9F4F0E94CB4B19A61AA61BA61CA680
:1036C0001DA61EA61FA618AA80E090E0A4EBB2E4F7
:1036D00089AB9AABABABBCABCE01899638C184E465
:1036E0000E943951882309F482C140E050E060E82B
:1036F0007FEB84E40E94311F0E941E6868307105D0
:1037000009F428C10CF04FC06530710509F4F7C009
:10371000DCF4672B09F040C30E94714B80E090E01D
:10372000AAE7B2E48093E0049093E104A093E2045A
:10373000B093E3046BE4262E63E0362E04EE14E02F
:10374000412C512C320168C06630710509F4DAC091
:103750006730710509F020C3409118025091190299
:1037600060911A0270911B028CE40E94311F6093D9
:1037700018027093190280931A0290931B024091D1
:10378000140250911502609116027091170282E5A1
:103790000E94311F609314027093150280931602E9
:1037A00090931702D7C06D30710509F404C18CF4F1
:1037B0006930710509F4D1C06A30710509F0ECC2B5
:1037C0006EE473E08AE594E10E94185985E090E088
:1037D000EFC06E30710509F4FFC06233710509F462
:1037E000BFC0DAC240E050E0BA018F2D0E94311F05
:1037F0000E941E684B015C01672BA1F40B5F1F4FF9
:10380000FFEF4F1A5F0A6F0A7F0A22E04216510447
:103810006104710409F4C0C2F101F1901F01FF209D
:1038200069F3E0CF65E273E08AE594E10E941859FC
:103830008F2D0E947D5A62E273E08AE594E10E9436
:103840001859C301B2010E94A1206FE173E08AE51B
:1038500094E10E941859B401092C000C880B990BB3
:103860000E94A12062E173E08AE594E10E94185968
:10387000F801628170E080E090E04AE00E94825AA4
:103880006BE073E08AE594E10E941859F8016181C8
:1038900070E080E090E04AE00E94825A8AE00E9454
:1038A0007D5A692D661F6627661FF80182810E9476
:1038B000853C640197FE04C0CC24DD24C818D908D7
:1038C000E12CF12CF801918061E0892D0E94853C6A
:1038D00060E0892D0E94853C6091E0047091E104D4
:1038E0008091E2049091E3040E941E680E94584D6A
:1038F000FFEFEF1AFF0ACE14DF0421F77FCF0E94FB
:10390000DD204AC248E2C42E44E1D42E51ECE52E1B
:1039100053E0F52E8E010F5F1F4F5801F6014485CD
:10392000558566857785F70181917F010E94311F5A
:10393000F80161937193819391938F01F0E1CF0E20
:10394000D11C24ECE21623E0F20641F7C5010E94E7
:10395000B84B22C20E94985B1FC20E94C4591CC26D
:103960008091231881FB002700F910E0B801110FA6
:10397000880B990B0E94C264AB01BC0183E50E94D5
:10398000311F0E941E688B018091231801151105BB
:1039900061F182608093231862E373E08AE594E129
:1039A0000E94185981E090E0012B11F480E090E032
:1039B0000E94CB20F1C1409150145091511460915C
:1039C0005214709153148AE50E94311F0E941E68A0
:1039D000CB010E94514AE0C16DE273E08AE594E1B7
:1039E0000E94185969EC73E060CD8D7FD3CF609150
:1039F000221870E080E090E00E94C064AB01BC013E
:103A000087E40E94311F0E941E68262E862F972F62
:103A10002FEF209322188430910509F44AC14CF409
:103A20008230910509F439C10CF03CC197FF23C0E5
:103A3000B3C18A35910509F45BC134F44C9709F0A0
:103A4000ABC10E94433AA8C18B35910509F454C11A
:103A50008C35910509F0A0C108E214E1FE01319610
:103A60007F0181ECC82E83E0D82E5E01FDE0AF0E11
:103A7000B11C370144C184E50E9439518823A1F06B
:103A800040E050E0BA0184E50E94311F11E020E0DF
:103A900030E0A9010E94126918160CF010E061E0F4
:103AA00061278CE00E94853C81E40E943951882383
:103AB00081F14091050250910602609107027091D8
:103AC000080281E40E94311F6B017C0120E030E09C
:103AD000A9010E94126918168CF420E030E04AEF28
:103AE00054E4C701B6010E94BB6487FD0AC0C12C23
:103AF000D12C3AEFE32E34E4F32E03C0C12CD12CA9
:103B00007601C0920502D0920602E0920702F0927E
:103B100008024091090250910A0260910B027091D3
:103B20000C0286E40E94311F2B013C0120E030E0B2
:103B3000A9010E94126918168CF420E030E04AE7CF
:103B400054E4C301B2010E94BB6487FD0AC0412C4A
:103B5000512C2AE7622E24E4722E03C0412C512CF2
:103B6000320108E214E1CE0101967C0191ECA92E0C
:103B700093E0B92E66961FAE6697C12CD12C68963D
:103B8000EFAE68976996FFAE6997F80190848184DB
:103B9000F2856796FFAF6797F8013384809113022F
:103BA000811104C030E020E090E005C094016796E8
:103BB0009FAD6797832D432F522F692F782FF501E3
:103BC00081915F010E94311F20911302222329F06D
:103BD000912C812CF0E0E0E004C06796FFAD679780
:103BE000E32D292D382D4F2F5E2F0E94B2664701FD
:103BF000F7016083718382839383F801208131818F
:103C0000428153810E94126918166CF463E473E0D8
:103C10008AE594E10E941859C6010E94CB20F1E088
:103C20006696FFAF669724E0E20EF11CF80124814E
:103C3000358146815781F401608171818281938150
:103C40000E94BB6487FF0DC068E373E08AE594E1DE
:103C50000E941859C6010E94CB20F1E06696FFAF82
:103C600066972FEFC21AD20A005F1F4F83E0C81673
:103C7000D10409F08ACF66969FAD669791110AC06C
:103C8000B301A20168968FAD689769969FAD699759
:103C90000E94FF4B209222187FC081E00E94665153
:103CA00082E004C08FEF0E94665183E08093221867
:103CB00073C00E94373A40E050E0BA0183E50E94A9
:103CC000311F6B017C0140E050E0BA0180E50E94A9
:103CD000311F20E030E04AE754E40E942165A7014B
:103CE00096010E94B2660E941E680E94584D54C000
:103CF00081E08093130250C0109213024DC0F8016E
:103D0000408451848284938480911302811104C081
:103D100030E020E090E004C0342D252D982D892D31
:103D2000432F522F692F782FF60181916F010E9446
:103D3000311F20911302222321F0412C512C812C80
:103D4000912C9201A4010E94B266F70161937193D4
:103D5000819391937F01005F1F4FEA15FB0579F670
:103D6000C3010E94CB4B18C040E250E0BE01675D2A
:103D70007F4FCE0105960E94884FBE01675D7F4F41
:103D80008AE594E10E948F2092C9F401EE0DFF1D97
:103D90001082C4010E94D245C85ADF4F0FB6F89472
:103DA000DEBF0FBECDBFDF91CF911F910F91FF906E
:103DB000EF90DF90CF90BF90AF909F908F907F90CB
:103DC0006F905F904F903F902F9008950F931F93A7
:103DD000CF93DF930E94373A64E973E08AE594E178
:103DE0000E941859C1ECD3E008E214E180E20E947D
:103DF0007D5A89910E947D5AF8016085718582857E
:103E000093850E94955B005F1F4FF3E0C43CDF0782
:103E100069F761E973E08AE594E10E9418596091BD
:103E2000090270910A0280910B0290910C020E948B
:103E3000955B6EE873E08AE594E10E941859609101
:103E400005027091060280910702909108020E947B
:103E5000955B8AE594E1DF91CF911F910F910C94CE
:103E600014598F929F92AF92BF92CF92DF92EF92AE
:103E7000FF920F931F93CF93DF934A015B01209131
:103E8000181830911918A9014956584E7A01C7E9F6
:103E9000D7E1082F880F110BCE15DF05D0F48991DB
:103EA0008B33B9F0082E000C990B0E94D269801751
:103EB000910791F7CE01DF91CF911F910F91FF9064
:103EC000EF90DF90CF90BF90AF909F908F900C9429
:103ED0004B64C501B401DF91CF911F910F91FF9009
:103EE000EF90DF90CF90BF90AF909F908F9008950C
:103EF0004F925F926F927F928F929F92AF92BF92FA
:103F0000CF92DF92EF92FF920F931F93CF93DF93A5
:103F100000D000D0CDB7DEB740E050E060E87FEBE6
:103F200081E40E94311F0E941E686330710508F011
:103F300091C08B0184E0000F111F8A95E1F7980171
:103F4000285D3B4E3E832D83D9014D915D916D914E
:103F50007C9184E50E94311F6B017C01ED81FE8123
:103F6000448155816681778182E40E94311F698393
:103F70007A838B839C8320E030E040E251E4AD8182
:103F8000BE816D917D918D919C910E9421650E94D1
:103F900054682B013C0120E030E040E251E4C701CD
:103FA000B6010E9421650E9454684B015C01C30167
:103FB000B2010E941E683B01C501B4010E941E6847
:103FC0006616770649F0ED81FE81C082D182E282D9
:103FD000F382FF24F39401C0F12C085D1B4E20E016
:103FE00030E040E251E4D80114966D917D918D91BD
:103FF0009C9117970E9421650E9454682B013C01F7
:1040000020E030E040E251E469817A818B819C813B
:104010000E9421650E9454684B015C01C301B201FA
:104020000E941E687E836D83C501B4010E941E68D4
:10403000ED81FE81E617F70751F089819A81AB8106
:10404000BC81F80184839583A683B78301C0F110F6
:104050000E945B5967E873E08AE594E10E94185971
:1040600008E214E178011A821982D70114966D9141
:104070007D918D919C9117970E94955BE981FA81C2
:10408000329719F08CE20E947D5A29813A812F5F84
:104090003F4F3A83298330E1E30EF11C89819A81F5
:1040A000039719F761E873E08AE594E10E941859D3
:1040B0001A821982D8016D917D918D919C910E94F7
:1040C000955BE981FA81329719F08CE20E947D5A62
:1040D00029813A812F5F3F4F3A832983005F1F4F29
:1040E0002330310539F76EE773E08AE594E12696CF
:1040F0000FB6F894DEBF0FBECDBFDF91CF911F91F9
:104100000F91FF90EF90DF90CF90BF90AF909F9076
:104110008F907F906F905F904F900C9418590F93F1
:104120001F93CF93DF93EC010E9404598C01CE01C1
:104130000E941459800F911FDF91CF911F910F9111
:104140000895CF92DF92EF92FF92CF93DF9397FF84
:1041500019C06B017C018DE20E947D5AEC0166273B
:104160007727CB016C197D098E099F094AE00E94CF
:10417000825A8C0F9D1FDF91CF91FF90EF90DF90BF
:10418000CF9008954AE0DF91CF91FF90EF90DF90BC
:10419000CF900C94825ACF93DF93BC01990F880B78
:1041A000990B0E94A120EC018AE594E10E94145928
:1041B0008C0F9D1FDF91CF910895CF9380E090E009
:1041C0000E94F265C82F63E773E08AE594E10E94DC
:1041D00018598C2FCC0F990BCF910C94CB200C94A9
:1041E00004596DE673E08AE594E10E94185969EC80
:1041F00073E08AE594E10E94EF206AE673E08AE5C5
:1042000094E10E94185980915814909159140C947B
:10421000CB20FC011382128214821582168282E264
:1042200092E09183808308954F925F926F927F9284
:104230008F929F92AF92BF92CF92DF92EF92FF92B6
:104240000F931F93CF93DF93CDB7DEB72A970FB6A7
:10425000F894DEBF0FBECDBF2B013C016A010E9466
:104260001E684B015C014AE0CE0101967C01BC0155
:10427000C4010E948E64B401990C880B990B0E94B2
:10428000C2649B01AC01C301B2010E94B1664B0143
:104290005C0120E030E0A9010E94BB6487FF04C0FC
:1042A000B7FAB094B7F8B094C7018C010196F80141
:1042B00020812111FACF8EE2808320E030E040E2BD
:1042C00051E4C501B4010E9421654B015C010E94CB
:1042D0001E6820E3260FF8012183072E000C880BAF
:1042E000990B0E94C2649B01AC01C501B4010E94FC
:1042F000B16620E030E040E251E40E9421650E9476
:104300001E68605DF801628313820D5F1F4F0E19F6
:104310001F090C151D0534F480E20E949A090F5FF5
:104320001F4FF7CFC7010E94E70B2A960FB6F894EC
:10433000DEBF0FBECDBFDF91CF911F910F91FF90D8
:10434000EF90DF90CF90BF90AF909F908F907F9035
:104350006F905F904F900895CF92DF92EF92FF920F
:104360000F931F93CF93DF93FC0180E2DF011D9237
:104370008A95E9F7DB011696CD91DC911797D783E3
:10438000C683558344835C96CD90DD90ED90FC9080
:104390005F97C086D186E286F386DE0197964F70DE
:1043A000552795E0440F551F9A95E1F7A40FB51FC7
:1043B0001B968C911B9783FD37C0877180831B965A
:1043C0009C911B97987111F488608083238381E00E
:1043D00082834BA15CA16DA17EA1448B558B668B22
:1043E000778B54964D915C91559760E070E0BA01DF
:1043F000552744275A960D911C915B9720E030E099
:10440000402B512B622B732B448F558F668F778FE8
:104410005C968D919D910D90BC91A02D808F918F78
:10442000A28FB38F81E003C01082128280E0DF91FF
:10443000CF911F910F91FF90EF90DF90CF90089553
:10444000CF92DF92EF92FF920F931F93CF93DF9360
:10445000EC018B013A8130FFB2C02881422F4870B5
:10446000C42E23FF14C0888D998DAA8DBB8D4889D9
:1044700059896A897B89841B950BA60BB70B8230FF
:104480009105A105B105A0F4009791F47AC025FF2C
:104490000FC0EE81FF818681978145E0880F991FCB
:1044A0004A95E1F7488959898417950709F46CC042
:1044B00088899989AA89BB89EE81FF817C0151E0B5
:1044C000F522AC01BD01032E39E07695679557952D
:1044D00047953A95D1F7302D25FF09C0848D958DEC
:1044E000A68DB78D480F591F6A1F7B1F6EC0D380E2
:1044F000D422E114F10431F5D11024C0892B8A2B88
:104500008B2B81F426FF05C0848D958DA68DB78DEC
:1045100004C08C8D9D8DAE8DBF8D8C879D87AE87A1
:10452000BF8710C04C855D856E857F85CC2089F165
:1045300036FF2FC04F5F5F4F6F4F7F4F4C875D87B8
:104540006E877F87EE81FF814C855D856E857F85D7
:104550004250510961097109048004C0440F551F7C
:10456000661F771F0A94D2F780899189A289B3893F
:10457000480F591F6A1F7B1F4D0D511D611D711D75
:1045800024C020E030E016C020E030E080E090E081
:1045900011C09E01245F3F4FCF010E94605687FDEE
:1045A0000EC08111CFCF8881807749F021E030E0C3
:1045B00081E090E0A901481B590BCA0122C0898102
:1045C000826089838FEF9FEF1CC08E819F8120E0E6
:1045D00080960E94A855009791F3FC01EE0DFF1DF7
:1045E0008081F801808388899989AA89BB8901968D
:1045F000A11DB11D888B998BAA8BBB8B21E030E06C
:10460000C5CFDF91CF911F910F91FF90EF90DF9079
:10461000CF9008952F923F924F925F926F927F9228
:104620008F929F92AF92BF92CF92DF92EF92FF92C2
:104630000F931F93CF93DF9300D01F921F92CDB79C
:10464000DEB79B838A83FB01DC018C91807709F4C0
:10465000F2C080911F158111EEC0A180B2808081CF
:10466000837009F4D8C0C5010C966DE070E00E941B
:10467000956622242394260E6F01EA80FB8040E099
:1046800050E0BA01C7010E940F5719821D82312CD8
:104690001C82F6013696FB83EA83D70150964D9033
:1046A0005D906D907C90539761E0C7010E94D45754
:1046B0008C01009709F4BFC0FC018081853E09F49C
:1046C000B6C0882321F0321408F4A8C009C03214FF
:1046D00008F0B1C03394882309F4ADC0853E11F0D1
:1046E0008E3211F41C82D9CFD8011B969C919F3039
:1046F00009F04DC0BC81B11109C086FFCECF8F71CA
:104700008D83F801F585F9838C830BC02D812150B1
:104710002D838213E7CFD8011D968C91B9818B131D
:10472000E1CFED818E2F90E00197FDE0F89F4001F1
:10473000F99F900C11248A149B04A0F6712C672D0C
:10474000C8010E94DF56A814B90421F4892B09F48A
:10475000A4CFC8CF8F3F910509F020F62FEB280F8B
:104760002A3108F4805EA4014F5F5F4FD601139693
:104770002D913C911497F901E80DF91D90812FEBD3
:10478000290F2A3108F4905E9813ACCF49C093FDED
:10479000A9CFBC81BB2359F0ED81E13009F04BC0BA
:1047A000C8010E940057F981F81345C00EC04BE0C4
:1047B00050E06A817B81C8010E94DA69892B09F087
:1047C0006CCFD6018C9180FD68CFB301A20185E04A
:1047D00076956795579547958A95D1F72C81B701BE
:1047E0008FE195E10F900F900F900F900F90DF9158
:1047F000CF911F910F91FF90EF90DF90CF90BF90DE
:10480000AF909F908F907F906F905F904F903F9070
:104810002F900C94AC21222423942ECF312C60CFE6
:104820007394BDE07B1609F438CF4A0188CF321467
:1048300008F058CF4FCF80E00F900F900F900F905F
:104840000F90DF91CF911F910F91FF90EF90DF902C
:10485000CF90BF90AF909F908F907F906F905F9020
:104860004F903F902F9008952F923F924F925F92DA
:104870006F927F928F929F92AF92BF92CF92DF9270
:10488000EF92FF920F931F93CF93DF93CDB7DEB7D5
:10489000C856D1090FB6F894DEBF0FBECDBF9AAB94
:1048A00089AB6A017B010BA71CA72DA73EA78091AE
:1048B000C4049091C50401969C012F713327A196E1
:1048C0003FAF2EAFA1978091C6049091C704A196E7
:1048D0004EAD5FADA19784179507A9F30091C4046D
:1048E0001091C5048091C4049091C5049EAB8DAB1A
:1048F000BE016F5F7F4F89A99AA90E9489392091D3
:104900003014309131144091321450913314239665
:104910002CAF3DAF4EAF5FAF239780914014909185
:104920004114A0914214B09143146B968CAF9DAF8B
:10493000AEAFBFAF6B9781E7ADA9BEA98A9F9001CB
:104940008B9F300D1124F901E35BFA4F2596FFAFE1
:10495000EEAF2597E65BFF4F108211821282138221
:104960009E012F5F3F4F38AB2FA725966EAC7FACD3
:104970002597015011090F711127809F1001819F08
:10498000300C112400E010E02F01AFA5B8A98D90E4
:104990009D90AD90BD90B8ABAFA7F301808291829E
:1049A000A282B382F801E20DF31DE35BFA4F80812E
:1049B0009181A281B381881A990AAA0ABB0AD301FC
:1049C00014968D929D92AD92BC921797D501C40119
:1049D0008827B7FD83959927AA27BB27F301918BD9
:1049E000808BC501B4010E94C2642DEC3CEC4CEC00
:1049F0005BE30E9421650E941E68D30118966D93A7
:104A00007D938D939C931B97B7FE08C0B094A094A0
:104A100090948094811C911CA11CB11CF30184868C
:104A20009586A686B786F20180819181A281B381A5
:104A300088159905AA05BB0520F480829182A2827F
:104A4000B382B2E16B0E711C0E5E1F4F063311056F
:104A500009F09BCFA9A9BAA9E8E2F4E14D915D91D3
:104A60006D917D914087518762877387709624E1AD
:104A7000E835F20799F781E74DA95EA9849FF00117
:104A8000859FF00D1124E35BFA4FDF01A65BBF4F5A
:104A90004D905D906D907C90139756E045165104B3
:104AA0006104710410F40C940B2E96961C928BA545
:104AB0009CA5ADA5BEA586AB97ABA0AFB1AF9C0141
:104AC000AD0160E070E080E89FE30E94AC676F9604
:104AD0006CAF7DAF8EAF9FAF6F97A70196010E941D
:104AE00021656B017C018091C4049091C5042091E3
:104AF000410530914205821B930BDC01AF71BB274E
:104B00002B96BFAFAEAF2B97A701960160E074E282
:104B100084E799E40E94AC670E941F694B015C0125
:104B20002B968EAD9FAD2B9702970E97B8F580917F
:104B3000010290910202A0910302B0910402881632
:104B40009906AA06BB0650F588199909AA09BB0956
:104B5000BC01CD01660F771F881F991F2B96EEAD04
:104B6000FFAD2B979F01FF0F440B550B0E943A6638
:104B7000CA01B9010E94C0640E941F69680D791DB5
:104B80008A1D9B1D0E94C0649B01AC0160E074E221
:104B900084E799E40E94AC676B017C012BA53CA5DE
:104BA0004DA55EA5C701B6010E9421656FAB78AF28
:104BB00089AF9AAF81E72DA93EA9829F8001839F8B
:104BC000100D1124035B1A4F8FA998ADA9ADBAAD92
:104BD000F80182AF93AFA4AFB5AFC301B2010E9499
:104BE000C06429966CAF7DAF8EAF9FAF29979B01B4
:104BF000AC01C701B6010E9421650E9490670E9426
:104C0000256861966CAF7DAF8EAF9FAF6197F8015D
:104C1000E65AFF4F60837183828393839E01235FF3
:104C20003F4F67963FAF2EAF679748EC54E05CAFBD
:104C30004BAF63963FAF2EAF639700E010E0212C9F
:104C4000312C50E85BA78FE38FA72596EEADFFAD23
:104C50002597E00FF11F60857185828593850E94FD
:104C6000C264A70196010E9421656396AEADBFADF7
:104C700063976D937D938D939D936396BFAFAEAF16
:104C800063974B015C01E894B7F8EBADFCAD419044
:104C9000519061907190FCAFEBAFA3019201C501FF
:104CA000B4010E941269181694F4A5019401C3017D
:104CB000B2010E94AC675B014C0191014BA55FA55D
:104CC0000E94126918161CF015018BA69FA60E5E95
:104CD0001F4F0633110509F0B8CF20E030E040E85F
:104CE0005FE3B1018BA59FA50E94BB6487FF4BC00A
:104CF0007E01F9E1EF0EF11C67960EAD1FAD6797CF
:104D000091014BA55FA5D8016D917D918D919C91ED
:104D10000E942165F80161937193819391938F01B2
:104D2000EE16FF0669F781E72DA93EA9829F800153
:104D3000839F100D1124035B1A4F2FA938AD49AD85
:104D40005AADB1018BA59FA50E942165D801DA96C5
:104D50006D937D938D939C93DD97065A1F4F6196BB
:104D60006CAD7DAD8EAD9FAD61970E94C064910129
:104D70004BA55FA50E9421650E942568F80160830C
:104D8000718382839383F0910502FBA72091060231
:104D90002FA7209007023090080223962CAD3DAD3E
:104DA0004EAD5FAD239760912C1470912D148091BE
:104DB0002E1490912F140E94B1662B013C016B962A
:104DC0002CAD3DAD4EAD5FAD6B97609138147091D9
:104DD000391480913A1490913B140E94B1666BAFE4
:104DE0007CAF8DAF9EAF9B01AC010E9421656B0132
:104DF0007C01A3019201C301B2010E942165A701B8
:104E000096010E94B2660E94606961966CAF7DAFA8
:104E10008EAF9FAF619723962CAD3DAD4EAD5FAD8C
:104E20002397609128147091291480912A149091ED
:104E30002B140E94B1666FAB78AF89AF9AAF9B011C
:104E4000AC010E942165A70196010E94B2660E94F2
:104E5000606965966CAF7DAF8EAF9FAF6597239607
:104E60002CAD3DAD4EAD5FAD2397A9A9BAA96D910B
:104E70007D918D919C910E94B1664B015C016B9676
:104E80002CAD3DAD4EAD5FAD6B97E9A9FAA964813C
:104E90007581868197810E94B16669AB7AAB8BABD5
:104EA0009CABA5019401C501B4010E9421656B0171
:104EB0007C0129A93AA94BA95CA9CA01B9010E94A0
:104EC00021659B01AC01C701B6010E94B2660E9438
:104ED00060696B017C0120E030E0A9010E94126949
:104EE00018160CF0DFC061962CAD3DAD4EAD5FAD38
:104EF0006197C301B2010E94AC672B013C0165962A
:104F00002CAD3DAD4EAD5FAD65976FA978AD89AD68
:104F10009AAD0E94AC6723966CAF7DAF8EAF9FAF0A
:104F20002397A7019601C501B4010E94AC674B010C
:104F30005C01A701960169A97AA98BA99CA90E9485
:104F4000AC6769AB7AAB8BAB9CAB20E030E045E75C
:104F500054ECC301B2010E9421656B017C01619692
:104F60002CAD3DAD4EAD5FAD61976BAD7CAD8DAD04
:104F70009EAD0E94AC67A50194010E9421656FABB4
:104F800078AF89AF9AAF29A93AA94BA95CA9C30107
:104F9000B2010E9421659B01AC016FA978AD89AD7A
:104FA0009AAD0E94B1669B01AC01C701B6010E9497
:104FB000AC673B018C0120E030E045E754EC2396E0
:104FC0006CAD7DAD8EAD9FAD23970E9421656B01C9
:104FD0007C0165962CAD3DAD4EAD5FAD65976BAD7B
:104FE0007CAD8DAD9EAD0E94AC67A50194010E9481
:104FF00021654B015C0129A93AA94BA95CA923961B
:105000006CAD7DAD8EAD9FAD23970E9421659B0158
:10501000AC01C501B4010E94B1669B01AC01C7019E
:10502000B6010E94AC676B017C0120E030E0A90171
:10503000B301C8010E94126920E030E0A901B60165
:10504000181674F4C7010E941269181684F49601A8
:10505000A701B301C8010E94BB6487FD08C005C059
:10506000C7010E9412691816ECF4360187012BA5BE
:105070003FA5A101B301C8010E94126918167CF472
:1050800020E030E0A9016BA57FA5C1010E94126953
:10509000181644F01BA61FA6212C312C03C06BA6AA
:1050A0007FA6180129962CAD3DAD4EAD5FAD299779
:1050B0006F966CAD7DAD8EAD9FAD6F970E942165F3
:1050C00069AB7AAB8BAB9CAB9B01AC016BA57FA5AD
:1050D000C1010E9421654B015C010E9490670E9402
:1050E00025686B017C0100E010E02596EEADFFAD78
:1050F0002597E00FF11F448455846684778441141A
:1051000051046104710409F43FC0C701B6010E9453
:10511000C0649B01AC01C501B4010E94BB6487FF60
:1051200033C0A501940129966CAD7DAD8EAD9FADC8
:1051300029970E9421650E9425686BA77CA78DA7EF
:105140009EA7A3019201C701B6010E946B662BA521
:105150003CA54DA55EA52617370748075907A0F4BB
:10516000CA01B9010E94C0646B017C01C301B20194
:105170000E94C0649B01AC01C701B6010E94AC67EC
:105180000E9425686B017C010E5E1F4F06331105DE
:1051900009F0ABCF81E74DA95EA9849F8001859F6F
:1051A000100D1124035B1A4FF801EA59FF4FC0821A
:1051B000D182E282F382C701B6010E94C0646B0112
:1051C0007C0129A93AA94BA95CA90E94AC67A596C4
:1051D0006CAF7DAF8EAF9FAFA597F801EA5BFF4F35
:1051E000608371838283938358015AE6A50EB11CB4
:1051F0002DEB37E346E051E4C701B6010E9421657B
:105200000E942568D5016D937D938D939C93139790
:10521000F801E25BFF4F1082118212821382F801C3
:10522000F2ADFBAFD801DB96BC91BFAFF801F4AD96
:105230002696FFAF2697D801DD96BC91BFABE4ED73
:10524000F4E02F96FFAFEEAF2F979E01275E3F4F02
:105250003AA729A72F0167966EAC7FAC67973BAD45
:105260003BA74FAD4FA726965FAD269759AB249627
:10527000BFAF249710E0D301CD90DD90ED90FD906D
:105280003D01E894F7F8F20181909190A190B190DE
:105290002F01A5019401C701B6010E9412691816D9
:1052A000F4F5112329F1A50194016BAD7FAD26968C
:1052B0008FAD26979FA90E9421654B015C012BA50C
:1052C0003FA549A924965FAD2497C701B6010E9466
:1052D00021659B01AC01C501B4010E94BB6487FF3D
:1052E0001DC0A7019601C501B4010E94AC6710C0A2
:1052F000A7019601C501B4010E94AC679B01AC01F6
:105300006BA57FA589A924969FAD24970E9421654E
:105310006BA77FA789AB24969FAF249711E029A59F
:105320003AA52615370509F0A6CF2B964EAD5FADF1
:105330002B97452B09F45CC1C0900B05D0900C0550
:10534000E0900D05F0900E052DEB37E346E855E3B0
:10535000B601C7010E94126918160CF049C19601E6
:10536000A7016BAD7FAD26968FAD26979FA90E94B2
:10537000BB6487FD05C01C2D0D2D3E2C2F2C06C0B7
:105380001BAD0FAD26963FAC26972FA89601A7011F
:10539000612F702F832D922D0E94AC67A9966CAF60
:1053A0007DAF8EAF9FAFA9978FEF94E06D969FAFC3
:1053B0008EAF6D976796AEADBFAD67976396BFAF83
:1053C000AEAF639720E030E040E85FE32D962CAF6E
:1053D0003DAF4EAF5FAF2D9768961FAE68976D9645
:1053E000AEADBFAD6D972D913D914D915D916D9697
:1053F000BFAFAEAF6D97A9966CAD7DAD8EAD9FADD5
:10540000A9970E9421656B017C016396EEADFFAD0B
:10541000639781909190A190B1906396FFAFEEAFAA
:1054200063976896FFAD6897FF23B1F02D962CAD7A
:105430003DAD4EAD5FAD2D970E9421656B017C01A6
:105440002D962CAD3DAD4EAD5FAD2D97C501B40190
:105450000E9421654B015C01A5019401C701B601C1
:105460000E94126920E030E0A90118162CF5C50150
:10547000B4010E94126918164CF020E030E0A90136
:10548000C701B6010E94BB6487FF05C0A501940156
:10549000C701B60124C02401350177FA709477F86A
:1054A0007094A3019201C701B6010E9412691816F7
:1054B0005CF52601370128C0C501B4010E94BB6418
:1054C00087FD09C020E030E0A901C701B6010E94B4
:1054D000126918164CF4A7019601C501B4010E9487
:1054E000B1662B013C0110C02601370177FA709498
:1054F00077F87094A3019201C501B4010E94BB64C6
:1055000087FD02C0240135012F96AEADBFAD2F97A8
:10551000CD90DD90ED90FD902F96BFAFAEAF2F9761
:10552000A7019601C301B2010E9412691816ECF49A
:10553000A3019201C701B6010E94AC679B01AC01B7
:105540002D966CAD7DAD8EAD9FAD2D970E942165E2
:105550002D966CAF7DAF8EAF9FAF2D976896BFAD88
:105560006897BF5F6896BFAF6897EBE0F5E06D9610
:105570002EAD3FAD6D97E217F30709F030CF689677
:105580003FAD6897332381F02D962CAD3DAD4EADE8
:105590005FAD2D97612F702F832D922D0E94216575
:1055A000162F072F382E292E24EA30E74DE75FE328
:1055B000612F702F832D922D0E9421656B017C013C
:1055C0002091FB043091FC044091FD045091FE04B5
:1055D0000E94BB6487FF12C0A70196016BA57FA53F
:1055E00089A924969FAD24970E941269181634F455
:1055F0001BA50FA539A824962FAC24978BA59FA592
:10560000A9A92496BFAD24978093FB049093FC0432
:10561000A093FD04B093FE041D8E1E8E1F8E18A253
:10562000A5968CAD9DADAEADBFADA597B058898F99
:105630009A8FAB8FBC8F81E74DA95EA9849F7001C3
:10564000859FF00C1124A7014D575A4FBE01635E90
:105650007F4FCE0149960E947F4B5B016C01F701A1
:10566000E157FA4F812F902FA32DB22D8083918384
:10567000A283B3839501A601612F702F832D922DF4
:105680000E94BB6487FD04C01A2D0B2D3C2C2D2CD1
:1056900081E7ADA9BEA98A9F90018B9F300D11248F
:1056A000235B3A4FF901FE96812F902FA32DB22D47
:1056B00080839183A283B3837901BEE6EB0EF11C54
:1056C000992493949501A6016BAD7FAD26968FAD7D
:1056D00026979FA90E94BB6418160CF4912CF70121
:1056E000908281E72DA93EA9829FF001839FF00D52
:1056F0001124E454FA4F81E080838BAD9FAD269650
:10570000AFAD2697BFA980930B0590930C05A0938E
:105710000D05B0930E054FEF54E06796EEADFFAD6B
:10572000679781919191A191B1916796FFAFEEAF8B
:105730006797FA0181939193A193B193AF0129A542
:105740003AA567968EAD9FAD67972817390729F759
:105750002BAD3FAD26964FAD26975FA960E070E078
:10576000CB010E94AC676D8F7E8F8F8F98A32BAD7E
:105770003FAD26964FAD26975FA9612F702F832DE1
:10578000922D0E94AC67698F7A8F8B8F9C8F21E757
:10579000ADA9BEA92A9FC0012B9F900D1124AE0177
:1057A000435E5F4FBE01675E7F4F835B9A4F0E94EF
:1057B0006B482091C6043091C7048091C404909135
:1057C000C5042817390731F484E690E090934A0520
:1057D00080934905A196EEADFFADA197F093C50466
:1057E000E093C4042091C4043091C5048091C604A0
:1057F0009091C7042817390709F4E1C00091C40447
:105800001091C504015011090F711127E12CF12CE1
:105810008091C6049091C7048017910709F4CFC006
:10582000F1E7F09FC001F19F900D11249C01235BD3
:105830003A4F69012115310509F4BBC0F901EE5B4E
:10584000FF4F30813DAB41814BA752815FA78381E0
:1058500089AB34974080518062807380A3019201AC
:105860006DA97BA58FA599A90E94BB6481110BC06E
:10587000E114F10409F49DC0F701E159FF4F808163
:10588000882309F496C0A1E7A09FC001A19F900DB5
:105890001124FC01E554FA4F208121115DC0FC0167
:1058A000ED57FA4F1F01E114F10439F0F701FE96AC
:1058B00080819181A281B38103C080E090E0DC010E
:1058C000898F9A8FAB8FBC8F21E7209FF001219F9A
:1058D000F00D1124ED56FA4F80809180A280B380A4
:1058E000B7FAB094B7F8B0948D8E9E8EAF8EB8A2F2
:1058F000A101BE01675E7F4FCE014D960E947F4B96
:105900009B01AC016DA97BA58FA599A90E94BB64E1
:1059100087FD22C0E114F10439F0F701FE96808181
:105920009181A281B38103C080E090E0DC0189A372
:105930009AA3ABA3BCA38DA29EA2AFA2B8A6A101BD
:10594000BE016F5D7F4FCE0185960E947F4BF62E84
:10595000E72EB82EA92E04C0FDA8EBA4BFA4A9A8C9
:105960002F2D3E2D4B2D5A2DC301B2010E94BB6439
:105970008823F9F031E7309FC001319F900D112449
:10598000835B9A4FFC01E159FF4F41E04083DC010A
:10599000A059BF4F2C91222311F010820AC0FC01A4
:1059A000FE964F2D5E2D6B2D7A2D408351836283A1
:1059B0007383015011090F711127760129CFC0900F
:1059C000C604D090C70400E010E081E7282E3324FD
:1059D00033948091C4049091C5048C159D0509F4FD
:1059E00062C02C9CC0012D9C900D1124DC01A35B96
:1059F000BA4F7D010115110509F44DC0F801E259B6
:105A0000FF4F8081811147C0FD01FE96FEABEDABDB
:105A100040805180628073804801FEE38F0E911CAC
:105A2000A3019201D4016D917D918D919C910E9471
:105A3000BB6487FF30C0F801EA5BFF4F8081918132
:105A4000A281B381B058898F9A8FAB8FBC8FA80188
:105A50004A5C5F4FB401CE0149960E947F4B4B01D7
:105A60005C019B01AC01C301B2010E9412691816CE
:105A700094F4F701E159FF4F3082D701A059BF4F8D
:105A80008C91882311F0108206C0EDA9FEA98082B6
:105A90009182A282B382FFEFCF1ADF0A2FE1C222E6
:105AA000DD24870196CFE090C604F090C704612CF6
:105AB000712CA12CB12C00E010E08091C4049091D5
:105AC000C5048E159F0509F46BC031E73E9DC001EA
:105AD0003F9D900D1124AC01435B5A4F6A01FA01BE
